S00A000042542E7372656384
S113000012C019C018C017C016C015C014C013C040
S113001012C011C010C00FC00EC00DC00CC00BC068
S11300200AC009C008C011241FBECFE5D4E0DEBF5A
S1130030CDBF0CD056C0E4CF549A80B5866880BD3D
S11300408DE489B95F9BFECF8CB108958FEF87BB98
S1130050F3DF813371F4C29AE3ECF9E03197F1F7FD
S113006000C00000E3ECF9E03197F1F700C00000B4
S113007026C0E3ECF9E03197F1F700C000008233C9
S113008071F4C39A83EC99E00197F1F700C0000082
S1130090E3ECF9E03197F1F700C000001BC0E3EC9A
S11300A0F9E03197F1F700C00000833341F4C49ABA
S11300B083EC99E00197F1F700C000000BC0E3EC7A
S11300C0F9E03197F1F700C00000843319F488B3E4
S11300D0837E88BB83EC99E00197F1F700C00000B0
S10900E0B7CFF894FFCF36
S9030000FC
